{"abi":[{"type":"constructor","inputs":[{"name":"initialOwner","type":"address","internalType":"address"}],"stateMutability":"nonpayable"},{"type":"function","name":"activateNode","inputs":[{"name":"nodeId","type":"string","internalType":"string"}],"outputs":[],"stateMutability":"nonpayable"},{"type":"function","name":"deactivateNode","inputs":[{"name":"nodeId","type":"string","internalType":"string"}],"outputs":[],"stateMutability":"nonpayable"},{"type":"function","name":"getActiveNodes","inputs":[],"outputs":[{"name":"activeNodeIds","type":"string[]","internalType":"string[]"},{"name":"publicKeys","type":"bytes[]","internalType":"bytes[]"},{"name":"urls","type":"string[]","internalType":"string[]"}],"stateMutability":"view"},{"type":"function","name":"getNode","inputs":[{"name":"nodeId","type":"string","internalType":"string"}],"outputs":[{"name":"publicKey","type":"bytes","internalType":"bytes"},{"name":"url","type":"string","internalType":"string"},{"name":"isActive","type":"bool","internalType":"bool"},{"name":"registeredAt","type":"uint256","internalType":"uint256"}],"stateMutability":"view"},{"type":"function","name":"getNodeCount","inputs":[],"outputs":[{"name":"","type":"uint256","internalType":"uint256"}],"stateMutability":"view"},{"type":"function","name":"isActiveNode","inputs":[{"name":"nodeId","type":"string","internalType":"string"}],"outputs":[{"name":"","type":"bool","internalType":"bool"}],"stateMutability":"view"},{"type":"function","name":"nodeIds","inputs":[{"name":"","type":"uint256","internalType":"uint256"}],"outputs":[{"name":"","type":"string","internalType":"string"}],"stateMutability":"view"},{"type":"function","name":"nodes","inputs":[{"name":"","type":"string","internalType":"string"}],"outputs":[{"name":"publicKey","type":"bytes","internalType":"bytes"},{"name":"url","type":"string","internalType":"string"},{"name":"isActive","type":"bool","internalType":"bool"},{"name":"registeredAt","type":"uint256","internalType":"uint256"}],"stateMutability":"view"},{"type":"function","name":"owner","inputs":[],"outputs":[{"name":"","type":"address","internalType":"address"}],"stateMutability":"view"},{"type":"function","name":"registerNode","inputs":[{"name":"nodeId","type":"string","internalType":"string"},{"name":"publicKey","type":"bytes","internalType":"bytes"},{"name":"url","type":"string","internalType":"string"}],"outputs":[],"stateMutability":"nonpayable"},{"type":"function","name":"renounceOwnership","inputs":[],"outputs":[],"stateMutability":"nonpayable"},{"type":"function","name":"transferOwnership","inputs":[{"name":"newOwner","type":"address","internalType":"address"}],"outputs":[],"stateMutability":"nonpayable"},{"type":"function","name":"updateNodeUrl","inputs":[{"name":"nodeId","type":"string","internalType":"string"},{"name":"newUrl","type":"string","internalType":"string"}],"outputs":[],"stateMutability":"nonpayable"},{"type":"event","name":"NodeActivated","inputs":[{"name":"nodeId","type":"string","indexed":true,"internalType":"string"}],"anonymous":false},{"type":"event","name":"NodeDeactivated","inputs":[{"name":"nodeId","type":"string","indexed":true,"internalType":"string"}],"anonymous":false},{"type":"event","name":"NodeRegistered","inputs":[{"name":"nodeId","type":"string","indexed":true,"internalType":"string"},{"name":"publicKey","type":"bytes","indexed":false,"internalType":"bytes"},{"name":"url","type":"string","indexed":false,"internalType":"string"}],"anonymous":false},{"type":"event","name":"NodeUpdated","inputs":[{"name":"nodeId","type":"string","indexed":true,"internalType":"string"},{"name":"url","type":"string","indexed":false,"internalType":"string"}],"anonymous":false},{"type":"event","name":"OwnershipTransferred","inputs":[{"name":"previousOwner","type":"address","indexed":true,"internalType":"address"},{"name":"newOwner","type":"address","indexed":true,"internalType":"address"}],"anonymous":false},{"type":"error","name":"EmptyNodeId","inputs":[]},{"type":"error","name":"EmptyUrl","inputs":[]},{"type":"error","name":"InvalidPublicKeyLength","inputs":[]},{"type":"error","name":"NodeAlreadyRegistered","inputs":[]},{"type":"error","name":"NodeNotRegistered","inputs":[]},{"type":"error","name":"OwnableInvalidOwner","inputs":[{"name":"owner","type":"address","internalType":"address"}]},{"type":"error","name":"OwnableUnauthorizedAccount","inputs":[{"name":"account","type":"address","internalType":"address"}]}],"bytecode":{"object":"0x608060405234801562000010575f80fd5b50604051620024e0380380620024e08339818101604052810190620000369190620001e9565b805f73ffffffffffffffffffffffffffffffffffffffff168173ffffffffffffffffffffffffffffffffffffffff1603620000aa575f6040517f1e4fbdf7000000000000000000000000000000000000000000000000000000008152600401620000a191906200022a565b60405180910390fd5b620000bb81620000c360201b60201c565b505062000245565b5f805f9054906101000a900473ffffffffffffffffffffffffffffffffffffffff169050815f806101000a81548173ffffffffffffffffffffffffffffffffffffffff021916908373ffffffffffffffffffffffffffffffffffffffff1602179055508173ffffffffffffffffffffffffffffffffffffffff168173ffffffffffffffffffffffffffffffffffffffff167f8be0079c531659141344cd1fd0a4f28419497f9722a3daafe3b4186f6b6457e060405160405180910390a35050565b5f80fd5b5f73ffffffffffffffffffffffffffffffffffffffff82169050919050565b5f620001b38262000188565b9050919050565b620001c581620001a7565b8114620001d0575f80fd5b50565b5f81519050620001e381620001ba565b92915050565b5f6020828403121562000201576200020062000184565b5b5f6200021084828501620001d3565b91505092915050565b6200022481620001a7565b82525050565b5f6020820190506200023f5f83018462000219565b92915050565b61228d80620002535f395ff3fe608060405234801561000f575f80fd5b50600436106100cd575f3560e01c80639428522a1161008a578063e5faec6211610064578063e5faec62146101ee578063f2fde38b1461020a578063f3d9bf0514610226578063f5417ca214610256576100cd565b80639428522a1461016f57806398543166146101a2578063d4ca7c6c146101d2576100cd565b806314a945e5146100d157806339bf397e146100ed578063420c26de1461010b5780636b51e91914610127578063715018a6146101475780638da5cb5b14610151575b5f80fd5b6100eb60048036038101906100e691906112da565b610289565b005b6100f561036f565b604051610102919061133d565b60405180910390f35b610125600480360381019061012091906112da565b61037b565b005b61012f610461565b60405161013e939291906115a8565b60405180910390f35b61014f61088a565b005b61015961089d565b6040516101669190611631565b60405180910390f35b610189600480360381019061018491906112da565b6108c4565b60405161019994939291906116f4565b60405180910390f35b6101bc60048036038101906101b7919061176f565b610a5f565b6040516101c9919061179a565b60405180910390f35b6101ec60048036038101906101e791906117ba565b610b05565b005b6102086004803603810190610203919061188d565b610c2f565b005b610224600480360381019061021f9190611967565b610f00565b005b610240600480360381019061023b91906112da565b610f84565b60405161024d9190611992565b60405180910390f35b610270600480360381019061026b9190611ad3565b610fbd565b60405161028094939291906116f4565b60405180910390f35b610291611119565b5f600183836040516102a4929190611b48565b908152602001604051809103902060030154036102ed576040517f014f556800000000000000000000000000000000000000000000000000000000815260040160405180910390fd5b6001808383604051610300929190611b48565b90815260200160405180910390206002015f6101000a81548160ff0219169083151502179055508181604051610337929190611b48565b60405180910390207feee4ff0a0bd593fd1a0d7504eca37b4027b72bc4cc3df6bf3d1c7e27848d279e60405160405180910390a25050565b5f600280549050905090565b610383611119565b5f60018383604051610396929190611b48565b908152602001604051809103902060030154036103df576040517f014f556800000000000000000000000000000000000000000000000000000000815260040160405180910390fd5b5f600183836040516103f2929190611b48565b90815260200160405180910390206002015f6101000a81548160ff0219169083151502179055508181604051610429929190611b48565b60405180910390207fb4551525dafbacbcbad53f3a1ad477e2de2428dcd5832ae46d8edacf8c2959d560405160405180910390a25050565b60608060605f805b6002805490508110156104e05760016002828154811061048c5761048b611b60565b5b905f5260205f20016040516104a19190611c7c565b90815260200160405180910390206002015f9054906101000a900460ff16156104d35781806104cf90611cbf565b9250505b8080600101915050610469565b508067ffffffffffffffff8111156104fb576104fa6119af565b5b60405190808252806020026020018201604052801561052e57816020015b60608152602001906001900390816105195790505b5093508067ffffffffffffffff81111561054b5761054a6119af565b5b60405190808252806020026020018201604052801561057e57816020015b60608152602001906001900390816105695790505b5092508067ffffffffffffffff81111561059b5761059a6119af565b5b6040519080825280602002602001820160405280156105ce57816020015b60608152602001906001900390816105b95790505b5091505f805b600280549050811015610882575f600282815481106105f6576105f5611b60565b5b905f5260205f2001805461060990611bba565b80601f016020809104026020016040519081016040528092919081815260200182805461063590611bba565b80156106805780601f1061065757610100808354040283529160200191610680565b820191905f5260205f20905b81548152906001019060200180831161066357829003601f168201915b505050505090505f6001826040516106989190611d36565b90815260200160405180910390206040518060800160405290815f820180546106c090611bba565b80601f01602080910402602001604051908101604052809291908181526020018280546106ec90611bba565b80156107375780601f1061070e57610100808354040283529160200191610737565b820191905f5260205f20905b81548152906001019060200180831161071a57829003601f168201915b5050505050815260200160018201805461075090611bba565b80601f016020809104026020016040519081016040528092919081815260200182805461077c90611bba565b80156107c75780601f1061079e576101008083540402835291602001916107c7565b820191905f5260205f20905b8154815290600101906020018083116107aa57829003601f168201915b50505050508152602001600282015f9054906101000a900460ff161515151581526020016003820154815250509050806040015115610873578188858151811061081457610813611b60565b5b6020026020010181905250805f015187858151811061083657610835611b60565b5b6020026020010181905250806020015186858151811061085957610858611b60565b5b6020026020010181905250838061086f90611cbf565b9450505b505080806001019150506105d4565b505050909192565b610892611119565b61089b5f6111a0565b565b5f805f9054906101000a900473ffffffffffffffffffffffffffffffffffffffff16905090565b6060805f805f600187876040516108dc929190611b48565b90815260200160405180910390206040518060800160405290815f8201805461090490611bba565b80601f016020809104026020016040519081016040528092919081815260200182805461093090611bba565b801561097b5780601f106109525761010080835404028352916020019161097b565b820191905f5260205f20905b81548152906001019060200180831161095e57829003601f168201915b5050505050815260200160018201805461099490611bba565b80601f01602080910402602001604051908101604052809291908181526020018280546109c090611bba565b8015610a0b5780601f106109e257610100808354040283529160200191610a0b565b820191905f5260205f20905b8154815290600101906020018083116109ee57829003601f168201915b50505050508152602001600282015f9054906101000a900460ff161515151581526020016003820154815250509050805f015181602001518260400151836060015194509450945094505092959194509250565b60028181548110610a6e575f80fd5b905f5260205f20015f915090508054610a8690611bba565b80601f0160208091040260200160405190810160405280929190818152602001828054610ab290611bba565b8015610afd5780601f10610ad457610100808354040283529160200191610afd565b820191905f5260205f20905b815481529060010190602001808311610ae057829003601f168201915b505050505081565b610b0d611119565b5f60018585604051610b20929190611b48565b90815260200160405180910390206003015403610b69576040517f014f556800000000000000000000000000000000000000000000000000000000815260040160405180910390fd5b5f8282905003610ba5576040517f38b0699300000000000000000000000000000000000000000000000000000000815260040160405180910390fd5b818160018686604051610bb9929190611b48565b90815260200160405180910390206001019182610bd7929190611ee1565b508383604051610be8929190611b48565b60405180910390207f20c82cab33709f4459f55c9099be41d66f3c6f162ab2ad091fc1f486f8fafed58383604051610c21929190611fda565b60405180910390a250505050565b610c37611119565b5f8686905003610c73576040517f7f956f3f00000000000000000000000000000000000000000000000000000000815260040160405180910390fd5b5f8282905003610caf576040517f38b0699300000000000000000000000000000000000000000000000000000000815260040160405180910390fd5b60308484905014610cec576040517f637297a400000000000000000000000000000000000000000000000000000000815260040160405180910390fd5b5f60018787604051610cff929190611b48565b90815260200160405180910390206003015414610d48576040517f1d61a62600000000000000000000000000000000000000000000000000000000815260040160405180910390fd5b604051806080016040528085858080601f0160208091040260200160405190810160405280939291908181526020018383808284375f81840152601f19601f82011690508083019250505050505050815260200183838080601f0160208091040260200160405190810160405280939291908181526020018383808284375f81840152601f19601f8201169050808301925050505050505081526020016001151581526020014281525060018787604051610e04929190611b48565b90815260200160405180910390205f820151815f019081610e259190612054565b506020820151816001019081610e3b9190612123565b506040820151816002015f6101000a81548160ff021916908315150217905550606082015181600301559050506002868690918060018154018082558091505060019003905f5260205f20015f909192909192909192909192509182610ea2929190611ee1565b508585604051610eb3929190611b48565b60405180910390207fcf111b5fd06eb3a4b5d004f643a334e3df4ea472369c8f6bf10763d88c4c344785858585604051610ef0949392919061221e565b60405180910390a2505050505050565b610f08611119565b5f73ffffffffffffffffffffffffffffffffffffffff168173ffffffffffffffffffffffffffffffffffffffff1603610f78575f6040517f1e4fbdf7000000000000000000000000000000000000000000000000000000008152600401610f6f9190611631565b60405180910390fd5b610f81816111a0565b50565b5f60018383604051610f97929190611b48565b90815260200160405180910390206002015f9054906101000a900460ff16905092915050565b6001818051602081018201805184825260208301602085012081835280955050505050505f91509050805f018054610ff490611bba565b80601f016020809104026020016040519081016040528092919081815260200182805461102090611bba565b801561106b5780601f106110425761010080835404028352916020019161106b565b820191905f5260205f20905b81548152906001019060200180831161104e57829003601f168201915b50505050509080600101805461108090611bba565b80601f01602080910402602001604051908101604052809291908181526020018280546110ac90611bba565b80156110f75780601f106110ce576101008083540402835291602001916110f7565b820191905f5260205f20905b8154815290600101906020018083116110da57829003601f168201915b505050505090806002015f9054906101000a900460ff16908060030154905084565b611121611261565b73ffffffffffffffffffffffffffffffffffffffff1661113f61089d565b73ffffffffffffffffffffffffffffffffffffffff161461119e57611162611261565b6040517f118cdaa70000000000000000000000000000000000000000000000000000000081526004016111959190611631565b60405180910390fd5b565b5f805f9054906101000a900473ffffffffffffffffffffffffffffffffffffffff169050815f806101000a81548173ffffffffffffffffffffffffffffffffffffffff021916908373ffffffffffffffffffffffffffffffffffffffff1602179055508173ffffffffffffffffffffffffffffffffffffffff168173ffffffffffffffffffffffffffffffffffffffff167f8be0079c531659141344cd1fd0a4f28419497f9722a3daafe3b4186f6b6457e060405160405180910390a35050565b5f33905090565b5f604051905090565b5f80fd5b5f80fd5b5f80fd5b5f80fd5b5f80fd5b5f8083601f84011261129a57611299611279565b5b8235905067ffffffffffffffff8111156112b7576112b661127d565b5b6020830191508360018202830111156112d3576112d2611281565b5b9250929050565b5f80602083850312156112f0576112ef611271565b5b5f83013567ffffffffffffffff81111561130d5761130c611275565b5b61131985828601611285565b92509250509250929050565b5f819050919050565b61133781611325565b82525050565b5f6020820190506113505f83018461132e565b92915050565b5f81519050919050565b5f82825260208201905092915050565b5f819050602082019050919050565b5f81519050919050565b5f82825260208201905092915050565b5f5b838110156113b657808201518184015260208101905061139b565b5f8484015250505050565b5f601f19601f8301169050919050565b5f6113db8261137f565b6113e58185611389565b93506113f5818560208601611399565b6113fe816113c1565b840191505092915050565b5f61141483836113d1565b905092915050565b5f602082019050919050565b5f61143282611356565b61143c8185611360565b93508360208202850161144e85611370565b805f5b85811015611489578484038952815161146a8582611409565b94506114758361141c565b925060208a01995050600181019050611451565b50829750879550505050505092915050565b5f81519050919050565b5f82825260208201905092915050565b5f819050602082019050919050565b5f81519050919050565b5f82825260208201905092915050565b5f6114e8826114c4565b6114f281856114ce565b9350611502818560208601611399565b61150b816113c1565b840191505092915050565b5f61152183836114de565b905092915050565b5f602082019050919050565b5f61153f8261149b565b61154981856114a5565b93508360208202850161155b856114b5565b805f5b8581101561159657848403895281516115778582611516565b945061158283611529565b925060208a0199505060018101905061155e565b50829750879550505050505092915050565b5f6060820190508181035f8301526115c08186611428565b905081810360208301526115d48185611535565b905081810360408301526115e88184611428565b9050949350505050565b5f73ffffffffffffffffffffffffffffffffffffffff82169050919050565b5f61161b826115f2565b9050919050565b61162b81611611565b82525050565b5f6020820190506116445f830184611622565b92915050565b5f82825260208201905092915050565b5f611664826114c4565b61166e818561164a565b935061167e818560208601611399565b611687816113c1565b840191505092915050565b5f82825260208201905092915050565b5f6116ac8261137f565b6116b68185611692565b93506116c6818560208601611399565b6116cf816113c1565b840191505092915050565b5f8115159050919050565b6116ee816116da565b82525050565b5f6080820190508181035f83015261170c818761165a565b9050818103602083015261172081866116a2565b905061172f60408301856116e5565b61173c606083018461132e565b95945050505050565b61174e81611325565b8114611758575f80fd5b50565b5f8135905061176981611745565b92915050565b5f6020828403121561178457611783611271565b5b5f6117918482850161175b565b91505092915050565b5f6020820190508181035f8301526117b281846116a2565b905092915050565b5f805f80604085870312156117d2576117d1611271565b5b5f85013567ffffffffffffffff8111156117ef576117ee611275565b5b6117fb87828801611285565b9450945050602085013567ffffffffffffffff81111561181e5761181d611275565b5b61182a87828801611285565b925092505092959194509250565b5f8083601f84011261184d5761184c611279565b5b8235905067ffffffffffffffff81111561186a5761186961127d565b5b60208301915083600182028301111561188657611885611281565b5b9250929050565b5f805f805f80606087890312156118a7576118a6611271565b5b5f87013567ffffffffffffffff8111156118c4576118c3611275565b5b6118d089828a01611285565b9650965050602087013567ffffffffffffffff8111156118f3576118f2611275565b5b6118ff89828a01611838565b9450945050604087013567ffffffffffffffff81111561192257611921611275565b5b61192e89828a01611285565b92509250509295509295509295565b61194681611611565b8114611950575f80fd5b50565b5f813590506119618161193d565b92915050565b5f6020828403121561197c5761197b611271565b5b5f61198984828501611953565b91505092915050565b5f6020820190506119a55f8301846116e5565b92915050565b5f80fd5b7f4e487b71000000000000000000000000000000000000000000000000000000005f52604160045260245ffd5b6119e5826113c1565b810181811067ffffffffffffffff82111715611a0457611a036119af565b5b80604052505050565b5f611a16611268565b9050611a2282826119dc565b919050565b5f67ffffffffffffffff821115611a4157611a406119af565b5b611a4a826113c1565b9050602081019050919050565b828183375f83830152505050565b5f611a77611a7284611a27565b611a0d565b905082815260208101848484011115611a9357611a926119ab565b5b611a9e848285611a57565b509392505050565b5f82601f830112611aba57611ab9611279565b5b8135611aca848260208601611a65565b91505092915050565b5f60208284031215611ae857611ae7611271565b5b5f82013567ffffffffffffffff811115611b0557611b04611275565b5b611b1184828501611aa6565b91505092915050565b5f81905092915050565b5f611b2f8385611b1a565b9350611b3c838584611a57565b82840190509392505050565b5f611b54828486611b24565b91508190509392505050565b7f4e487b71000000000000000000000000000000000000000000000000000000005f52603260045260245ffd5b7f4e487b71000000000000000000000000000000000000000000000000000000005f52602260045260245ffd5b5f6002820490506001821680611bd157607f821691505b602082108103611be457611be3611b8d565b5b50919050565b5f819050815f5260205f209050919050565b5f8154611c0881611bba565b611c128186611b1a565b9450600182165f8114611c2c5760018114611c4157611c73565b60ff1983168652811515820286019350611c73565b611c4a85611bea565b5f5b83811015611c6b57815481890152600182019150602081019050611c4c565b838801955050505b50505092915050565b5f611c878284611bfc565b915081905092915050565b7f4e487b71000000000000000000000000000000000000000000000000000000005f52601160045260245ffd5b5f611cc982611325565b91507fffffffffffffffffffffffffffffffffffffffffffffffffffffffffffffffff8203611cfb57611cfa611c92565b5b600182019050919050565b5f611d108261137f565b611d1a8185611b1a565b9350611d2a818560208601611399565b80840191505092915050565b5f611d418284611d06565b915081905092915050565b5f82905092915050565b5f6020601f8301049050919050565b5f82821b905092915050565b5f60088302611da07fffffffffffffffffffffffffffffffffffffffffffffffffffffffffffffffff82611d65565b611daa8683611d65565b95508019841693508086168417925050509392505050565b5f819050919050565b5f611de5611de0611ddb84611325565b611dc2565b611325565b9050919050565b5f819050919050565b611dfe83611dcb565b611e12611e0a82611dec565b848454611d71565b825550505050565b5f90565b611e26611e1a565b611e31818484611df5565b505050565b5b81811015611e5457611e495f82611e1e565b600181019050611e37565b5050565b601f821115611e9957611e6a81611bea565b611e7384611d56565b81016020851015611e82578190505b611e96611e8e85611d56565b830182611e36565b50505b505050565b5f82821c905092915050565b5f611eb95f1984600802611e9e565b1980831691505092915050565b5f611ed18383611eaa565b9150826002028217905092915050565b611eeb8383611d4c565b67ffffffffffffffff811115611f0457611f036119af565b5b611f0e8254611bba565b611f19828285611e58565b5f601f831160018114611f46575f8415611f34578287013590505b611f3e8582611ec6565b865550611fa5565b601f198416611f5486611bea565b5f5b82811015611f7b57848901358255600182019150602085019450602081019050611f56565b86831015611f985784890135611f94601f891682611eaa565b8355505b6001600288020188555050505b50505050505050565b5f611fb98385611692565b9350611fc6838584611a57565b611fcf836113c1565b840190509392505050565b5f6020820190508181035f830152611ff3818486611fae565b90509392505050565b5f819050815f5260205f209050919050565b601f82111561204f5761202081611ffc565b61202984611d56565b81016020851015612038578190505b61204c61204485611d56565b830182611e36565b50505b505050565b61205d826114c4565b67ffffffffffffffff811115612076576120756119af565b5b6120808254611bba565b61208b82828561200e565b5f60209050601f8311600181146120bc575f84156120aa578287015190505b6120b48582611ec6565b86555061211b565b601f1984166120ca86611ffc565b5f5b828110156120f1578489015182556001820191506020850194506020810190506120cc565b8683101561210e578489015161210a601f891682611eaa565b8355505b6001600288020188555050505b505050505050565b61212c8261137f565b67ffffffffffffffff811115612145576121446119af565b5b61214f8254611bba565b61215a828285611e58565b5f60209050601f83116001811461218b575f8415612179578287015190505b6121838582611ec6565b8655506121ea565b601f19841661219986611bea565b5f5b828110156121c05784890151825560018201915060208501945060208101905061219b565b868310156121dd57848901516121d9601f891682611eaa565b8355505b6001600288020188555050505b505050505050565b5f6121fd838561164a565b935061220a838584611a57565b612213836113c1565b840190509392505050565b5f6040820190508181035f8301526122378186886121f2565b9050818103602083015261224c818486611fae565b90509594505050505056fea26469706673582212209812a5222100249ad0d4fa67a48adbd3509f30926f1d6a2225dafdb192f8f30e64736f6c63430008170033","linkReferences":{}},"methodIdentifiers":{"activateNode(string)":"14a945e5","deactivateNode(string)":"420c26de","getActiveNodes()":"6b51e919","getNode(string)":"9428522a","getNodeCount()":"39bf397e","isActiveNode(string)":"f3d9bf05","nodeIds(uint256)":"98543166","nodes(string)":"f5417ca2","owner()":"8da5cb5b","registerNode(string,bytes,string)":"e5faec62","renounceOwnership()":"715018a6","transferOwnership(address)":"f2fde38b","updateNodeUrl(string,string)":"d4ca7c6c"},"id":18}